{
    "_format": "hh-sol-artifact-1",
    "contractName": "BananaAccount",
    "sourceName": "contracts/BananaAccount.sol",
    "abi": [
        {
            "inputs": [
                {
                    "internalType": "address",
                    "name": "_wormholeRelayer",
                    "type": "address"
                },
                {
                    "internalType": "address",
                    "name": "_tokenBridge",
                    "type": "address"
                },
                {
                    "internalType": "address",
                    "name": "_wormhole",
                    "type": "address"
                }
            ],
            "stateMutability": "nonpayable",
            "type": "constructor"
        },
        {
            "inputs": [
                {
                    "internalType": "bytes32",
                    "name": "",
                    "type": "bytes32"
                }
            ],
            "name": "NotAnEvmAddress",
            "type": "error"
        },
        {
            "inputs": [],
            "name": "OwnerCanNotBeSelf",
            "type": "error"
        },
        {
            "inputs": [],
            "name": "OwnerCannotBeZero",
            "type": "error"
        },
        {
            "inputs": [],
            "name": "OwnerProvidedIsSame",
            "type": "error"
        },
        {
            "inputs": [
                {
                    "internalType": "address",
                    "name": "token",
                    "type": "address"
                },
                {
                    "internalType": "address",
                    "name": "dest",
                    "type": "address"
                },
                {
                    "internalType": "uint256",
                    "name": "amount",
                    "type": "uint256"
                }
            ],
            "name": "TokenTransferFailed",
            "type": "error"
        },
        {
            "inputs": [],
            "name": "TransferToZeroAddressAttempt",
            "type": "error"
        },
        {
            "anonymous": false,
            "inputs": [
                {
                    "indexed": false,
                    "internalType": "address",
                    "name": "owner",
                    "type": "address"
                }
            ],
            "name": "AddedOwner",
            "type": "event"
        },
        {
            "anonymous": false,
            "inputs": [
                {
                    "indexed": true,
                    "internalType": "bytes32",
                    "name": "approvedHash",
                    "type": "bytes32"
                },
                {
                    "indexed": true,
                    "internalType": "address",
                    "name": "owner",
                    "type": "address"
                }
            ],
            "name": "ApproveHash",
            "type": "event"
        },
        {
            "anonymous": false,
            "inputs": [
                {
                    "indexed": false,
                    "internalType": "bytes",
                    "name": "payload",
                    "type": "bytes"
                },
                {
                    "components": [
                        {
                            "internalType": "bytes32",
                            "name": "tokenHomeAddress",
                            "type": "bytes32"
                        },
                        {
                            "internalType": "uint16",
                            "name": "tokenHomeChain",
                            "type": "uint16"
                        },
                        {
                            "internalType": "address",
                            "name": "tokenAddress",
                            "type": "address"
                        },
                        {
                            "internalType": "uint256",
                            "name": "amount",
                            "type": "uint256"
                        },
                        {
                            "internalType": "uint256",
                            "name": "amountNormalized",
                            "type": "uint256"
                        }
                    ],
                    "indexed": false,
                    "internalType": "struct TokenReceiver.TokenReceived[]",
                    "name": "receivedTokens",
                    "type": "tuple[]"
                },
                {
                    "indexed": false,
                    "internalType": "bytes32",
                    "name": "sourceAddress",
                    "type": "bytes32"
                },
                {
                    "indexed": false,
                    "internalType": "uint16",
                    "name": "targetChain",
                    "type": "uint16"
                },
                {
                    "indexed": false,
                    "internalType": "bytes32",
                    "name": "deliveryHash",
                    "type": "bytes32"
                }
            ],
            "name": "BridgeSuccessful",
            "type": "event"
        },
        {
            "anonymous": false,
            "inputs": [
                {
                    "indexed": false,
                    "internalType": "address",
                    "name": "handler",
                    "type": "address"
                }
            ],
            "name": "ChangedFallbackHandler",
            "type": "event"
        },
        {
            "anonymous": false,
            "inputs": [
                {
                    "indexed": false,
                    "internalType": "address",
                    "name": "guard",
                    "type": "address"
                }
            ],
            "name": "ChangedGuard",
            "type": "event"
        },
        {
            "anonymous": false,
            "inputs": [
                {
                    "indexed": false,
                    "internalType": "uint256",
                    "name": "threshold",
                    "type": "uint256"
                }
            ],
            "name": "ChangedThreshold",
            "type": "event"
        },
        {
            "anonymous": false,
            "inputs": [
                {
                    "indexed": false,
                    "internalType": "address",
                    "name": "module",
                    "type": "address"
                }
            ],
            "name": "DisabledModule",
            "type": "event"
        },
        {
            "anonymous": false,
            "inputs": [
                {
                    "indexed": false,
                    "internalType": "address",
                    "name": "module",
                    "type": "address"
                }
            ],
            "name": "EnabledModule",
            "type": "event"
        },
        {
            "anonymous": false,
            "inputs": [
                {
                    "indexed": false,
                    "internalType": "bytes32",
                    "name": "txHash",
                    "type": "bytes32"
                },
                {
                    "indexed": false,
                    "internalType": "uint256",
                    "name": "payment",
                    "type": "uint256"
                }
            ],
            "name": "ExecutionFailure",
            "type": "event"
        },
        {
            "anonymous": false,
            "inputs": [
                {
                    "indexed": true,
                    "internalType": "address",
                    "name": "module",
                    "type": "address"
                }
            ],
            "name": "ExecutionFromModuleFailure",
            "type": "event"
        },
        {
            "anonymous": false,
            "inputs": [
                {
                    "indexed": true,
                    "internalType": "address",
                    "name": "module",
                    "type": "address"
                }
            ],
            "name": "ExecutionFromModuleSuccess",
            "type": "event"
        },
        {
            "anonymous": false,
            "inputs": [
                {
                    "indexed": false,
                    "internalType": "bytes32",
                    "name": "txHash",
                    "type": "bytes32"
                },
                {
                    "indexed": false,
                    "internalType": "uint256",
                    "name": "payment",
                    "type": "uint256"
                }
            ],
            "name": "ExecutionSuccess",
            "type": "event"
        },
        {
            "anonymous": false,
            "inputs": [
                {
                    "indexed": true,
                    "internalType": "address",
                    "name": "_scw",
                    "type": "address"
                },
                {
                    "indexed": true,
                    "internalType": "address",
                    "name": "_oldOwner",
                    "type": "address"
                },
                {
                    "indexed": true,
                    "internalType": "address",
                    "name": "_newOwner",
                    "type": "address"
                }
            ],
            "name": "OwnerUpdated",
            "type": "event"
        },
        {
            "anonymous": false,
            "inputs": [
                {
                    "indexed": false,
                    "internalType": "address",
                    "name": "owner",
                    "type": "address"
                }
            ],
            "name": "RemovedOwner",
            "type": "event"
        },
        {
            "anonymous": false,
            "inputs": [
                {
                    "indexed": true,
                    "internalType": "address",
                    "name": "sender",
                    "type": "address"
                },
                {
                    "indexed": false,
                    "internalType": "uint256",
                    "name": "value",
                    "type": "uint256"
                }
            ],
            "name": "SafeReceived",
            "type": "event"
        },
        {
            "anonymous": false,
            "inputs": [
                {
                    "indexed": true,
                    "internalType": "address",
                    "name": "initiator",
                    "type": "address"
                },
                {
                    "indexed": false,
                    "internalType": "address[]",
                    "name": "owners",
                    "type": "address[]"
                },
                {
                    "indexed": false,
                    "internalType": "uint256",
                    "name": "threshold",
                    "type": "uint256"
                },
                {
                    "indexed": false,
                    "internalType": "address",
                    "name": "initializer",
                    "type": "address"
                },
                {
                    "indexed": false,
                    "internalType": "address",
                    "name": "fallbackHandler",
                    "type": "address"
                }
            ],
            "name": "SafeSetup",
            "type": "event"
        },
        {
            "anonymous": false,
            "inputs": [
                {
                    "indexed": true,
                    "internalType": "bytes32",
                    "name": "msgHash",
                    "type": "bytes32"
                }
            ],
            "name": "SignMsg",
            "type": "event"
        },
        {
            "stateMutability": "nonpayable",
            "type": "fallback"
        },
        {
            "inputs": [],
            "name": "VERSION",
            "outputs": [
                {
                    "internalType": "string",
                    "name": "",
                    "type": "string"
                }
            ],
            "stateMutability": "view",
            "type": "function"
        },
        {
            "inputs": [
                {
                    "internalType": "address",
                    "name": "owner",
                    "type": "address"
                },
                {
                    "internalType": "uint256",
                    "name": "_threshold",
                    "type": "uint256"
                }
            ],
            "name": "addOwnerWithThreshold",
            "outputs": [],
            "stateMutability": "nonpayable",
            "type": "function"
        },
        {
            "inputs": [
                {
                    "internalType": "bytes32",
                    "name": "hashToApprove",
                    "type": "bytes32"
                }
            ],
            "name": "approveHash",
            "outputs": [],
            "stateMutability": "nonpayable",
            "type": "function"
        },
        {
            "inputs": [
                {
                    "internalType": "address",
                    "name": "",
                    "type": "address"
                },
                {
                    "internalType": "bytes32",
                    "name": "",
                    "type": "bytes32"
                }
            ],
            "name": "approvedHashes",
            "outputs": [
                {
                    "internalType": "uint256",
                    "name": "",
                    "type": "uint256"
                }
            ],
            "stateMutability": "view",
            "type": "function"
        },
        {
            "inputs": [
                {
                    "internalType": "uint256",
                    "name": "_threshold",
                    "type": "uint256"
                }
            ],
            "name": "changeThreshold",
            "outputs": [],
            "stateMutability": "nonpayable",
            "type": "function"
        },
        {
            "inputs": [
                {
                    "internalType": "bytes32",
                    "name": "dataHash",
                    "type": "bytes32"
                },
                {
                    "internalType": "bytes",
                    "name": "data",
                    "type": "bytes"
                },
                {
                    "internalType": "bytes",
                    "name": "signatures",
                    "type": "bytes"
                },
                {
                    "internalType": "uint256",
                    "name": "requiredSignatures",
                    "type": "uint256"
                }
            ],
            "name": "checkNSignatures",
            "outputs": [],
            "stateMutability": "view",
            "type": "function"
        },
        {
            "inputs": [
                {
                    "internalType": "bytes32",
                    "name": "dataHash",
                    "type": "bytes32"
                },
                {
                    "internalType": "bytes",
                    "name": "data",
                    "type": "bytes"
                },
                {
                    "internalType": "bytes",
                    "name": "signatures",
                    "type": "bytes"
                }
            ],
            "name": "checkSignatures",
            "outputs": [],
            "stateMutability": "view",
            "type": "function"
        },
        {
            "inputs": [
                {
                    "internalType": "address",
                    "name": "prevModule",
                    "type": "address"
                },
                {
                    "internalType": "address",
                    "name": "module",
                    "type": "address"
                }
            ],
            "name": "disableModule",
            "outputs": [],
            "stateMutability": "nonpayable",
            "type": "function"
        },
        {
            "inputs": [],
            "name": "domainSeparator",
            "outputs": [
                {
                    "internalType": "bytes32",
                    "name": "",
                    "type": "bytes32"
                }
            ],
            "stateMutability": "view",
            "type": "function"
        },
        {
            "inputs": [
                {
                    "internalType": "address",
                    "name": "module",
                    "type": "address"
                }
            ],
            "name": "enableModule",
            "outputs": [],
            "stateMutability": "nonpayable",
            "type": "function"
        },
        {
            "inputs": [
                {
                    "internalType": "address",
                    "name": "to",
                    "type": "address"
                },
                {
                    "internalType": "uint256",
                    "name": "value",
                    "type": "uint256"
                },
                {
                    "internalType": "bytes",
                    "name": "data",
                    "type": "bytes"
                },
                {
                    "internalType": "enum Enum.Operation",
                    "name": "operation",
                    "type": "uint8"
                },
                {
                    "internalType": "uint256",
                    "name": "safeTxGas",
                    "type": "uint256"
                },
                {
                    "internalType": "uint256",
                    "name": "baseGas",
                    "type": "uint256"
                },
                {
                    "internalType": "uint256",
                    "name": "gasPrice",
                    "type": "uint256"
                },
                {
                    "internalType": "address",
                    "name": "gasToken",
                    "type": "address"
                },
                {
                    "internalType": "address",
                    "name": "refundReceiver",
                    "type": "address"
                },
                {
                    "internalType": "uint256",
                    "name": "_nonce",
                    "type": "uint256"
                }
            ],
            "name": "encodeTransactionData",
            "outputs": [
                {
                    "internalType": "bytes",
                    "name": "",
                    "type": "bytes"
                }
            ],
            "stateMutability": "view",
            "type": "function"
        },
        {
            "inputs": [],
            "name": "entryPoint",
            "outputs": [
                {
                    "internalType": "address",
                    "name": "",
                    "type": "address"
                }
            ],
            "stateMutability": "view",
            "type": "function"
        },
        {
            "inputs": [
                {
                    "internalType": "address[]",
                    "name": "to",
                    "type": "address[]"
                },
                {
                    "internalType": "uint256[]",
                    "name": "value",
                    "type": "uint256[]"
                },
                {
                    "internalType": "bytes[]",
                    "name": "data",
                    "type": "bytes[]"
                },
                {
                    "internalType": "enum Enum.Operation",
                    "name": "operation",
                    "type": "uint8"
                }
            ],
            "name": "execBatchTransactionFromEntrypoint",
            "outputs": [],
            "stateMutability": "nonpayable",
            "type": "function"
        },
        {
            "inputs": [
                {
                    "internalType": "address",
                    "name": "to",
                    "type": "address"
                },
                {
                    "internalType": "uint256",
                    "name": "value",
                    "type": "uint256"
                },
                {
                    "internalType": "bytes",
                    "name": "data",
                    "type": "bytes"
                },
                {
                    "internalType": "enum Enum.Operation",
                    "name": "operation",
                    "type": "uint8"
                },
                {
                    "internalType": "uint256",
                    "name": "safeTxGas",
                    "type": "uint256"
                },
                {
                    "internalType": "uint256",
                    "name": "baseGas",
                    "type": "uint256"
                },
                {
                    "internalType": "uint256",
                    "name": "gasPrice",
                    "type": "uint256"
                },
                {
                    "internalType": "address",
                    "name": "gasToken",
                    "type": "address"
                },
                {
                    "internalType": "address payable",
                    "name": "refundReceiver",
                    "type": "address"
                },
                {
                    "internalType": "bytes",
                    "name": "signatures",
                    "type": "bytes"
                }
            ],
            "name": "execTransaction",
            "outputs": [
                {
                    "internalType": "bool",
                    "name": "success",
                    "type": "bool"
                }
            ],
            "stateMutability": "payable",
            "type": "function"
        },
        {
            "inputs": [
                {
                    "internalType": "address",
                    "name": "to",
                    "type": "address"
                },
                {
                    "internalType": "uint256",
                    "name": "value",
                    "type": "uint256"
                },
                {
                    "internalType": "bytes",
                    "name": "data",
                    "type": "bytes"
                },
                {
                    "internalType": "enum Enum.Operation",
                    "name": "operation",
                    "type": "uint8"
                }
            ],
            "name": "execTransactionFromEntrypoint",
            "outputs": [],
            "stateMutability": "nonpayable",
            "type": "function"
        },
        {
            "inputs": [
                {
                    "internalType": "address",
                    "name": "to",
                    "type": "address"
                },
                {
                    "internalType": "uint256",
                    "name": "value",
                    "type": "uint256"
                },
                {
                    "internalType": "bytes",
                    "name": "data",
                    "type": "bytes"
                },
                {
                    "internalType": "enum Enum.Operation",
                    "name": "operation",
                    "type": "uint8"
                }
            ],
            "name": "execTransactionFromModule",
            "outputs": [
                {
                    "internalType": "bool",
                    "name": "success",
                    "type": "bool"
                }
            ],
            "stateMutability": "nonpayable",
            "type": "function"
        },
        {
            "inputs": [
                {
                    "internalType": "address",
                    "name": "to",
                    "type": "address"
                },
                {
                    "internalType": "uint256",
                    "name": "value",
                    "type": "uint256"
                },
                {
                    "internalType": "bytes",
                    "name": "data",
                    "type": "bytes"
                },
                {
                    "internalType": "enum Enum.Operation",
                    "name": "operation",
                    "type": "uint8"
                }
            ],
            "name": "execTransactionFromModuleReturnData",
            "outputs": [
                {
                    "internalType": "bool",
                    "name": "success",
                    "type": "bool"
                },
                {
                    "internalType": "bytes",
                    "name": "returnData",
                    "type": "bytes"
                }
            ],
            "stateMutability": "nonpayable",
            "type": "function"
        },
        {
            "inputs": [],
            "name": "getChainId",
            "outputs": [
                {
                    "internalType": "uint256",
                    "name": "",
                    "type": "uint256"
                }
            ],
            "stateMutability": "view",
            "type": "function"
        },
        {
            "inputs": [
                {
                    "internalType": "address",
                    "name": "start",
                    "type": "address"
                },
                {
                    "internalType": "uint256",
                    "name": "pageSize",
                    "type": "uint256"
                }
            ],
            "name": "getModulesPaginated",
            "outputs": [
                {
                    "internalType": "address[]",
                    "name": "array",
                    "type": "address[]"
                },
                {
                    "internalType": "address",
                    "name": "next",
                    "type": "address"
                }
            ],
            "stateMutability": "view",
            "type": "function"
        },
        {
            "inputs": [],
            "name": "getOwners",
            "outputs": [
                {
                    "internalType": "address[]",
                    "name": "",
                    "type": "address[]"
                }
            ],
            "stateMutability": "view",
            "type": "function"
        },
        {
            "inputs": [
                {
                    "internalType": "uint256",
                    "name": "offset",
                    "type": "uint256"
                },
                {
                    "internalType": "uint256",
                    "name": "length",
                    "type": "uint256"
                }
            ],
            "name": "getStorageAt",
            "outputs": [
                {
                    "internalType": "bytes",
                    "name": "",
                    "type": "bytes"
                }
            ],
            "stateMutability": "view",
            "type": "function"
        },
        {
            "inputs": [],
            "name": "getThreshold",
            "outputs": [
                {
                    "internalType": "uint256",
                    "name": "",
                    "type": "uint256"
                }
            ],
            "stateMutability": "view",
            "type": "function"
        },
        {
            "inputs": [
                {
                    "internalType": "address",
                    "name": "to",
                    "type": "address"
                },
                {
                    "internalType": "uint256",
                    "name": "value",
                    "type": "uint256"
                },
                {
                    "internalType": "bytes",
                    "name": "data",
                    "type": "bytes"
                },
                {
                    "internalType": "enum Enum.Operation",
                    "name": "operation",
                    "type": "uint8"
                },
                {
                    "internalType": "uint256",
                    "name": "safeTxGas",
                    "type": "uint256"
                },
                {
                    "internalType": "uint256",
                    "name": "baseGas",
                    "type": "uint256"
                },
                {
                    "internalType": "uint256",
                    "name": "gasPrice",
                    "type": "uint256"
                },
                {
                    "internalType": "address",
                    "name": "gasToken",
                    "type": "address"
                },
                {
                    "internalType": "address",
                    "name": "refundReceiver",
                    "type": "address"
                },
                {
                    "internalType": "uint256",
                    "name": "_nonce",
                    "type": "uint256"
                }
            ],
            "name": "getTransactionHash",
            "outputs": [
                {
                    "internalType": "bytes32",
                    "name": "",
                    "type": "bytes32"
                }
            ],
            "stateMutability": "view",
            "type": "function"
        },
        {
            "inputs": [
                {
                    "internalType": "address",
                    "name": "module",
                    "type": "address"
                }
            ],
            "name": "isModuleEnabled",
            "outputs": [
                {
                    "internalType": "bool",
                    "name": "",
                    "type": "bool"
                }
            ],
            "stateMutability": "view",
            "type": "function"
        },
        {
            "inputs": [
                {
                    "internalType": "address",
                    "name": "owner",
                    "type": "address"
                }
            ],
            "name": "isOwner",
            "outputs": [
                {
                    "internalType": "bool",
                    "name": "",
                    "type": "bool"
                }
            ],
            "stateMutability": "view",
            "type": "function"
        },
        {
            "inputs": [],
            "name": "nonce",
            "outputs": [
                {
                    "internalType": "uint256",
                    "name": "",
                    "type": "uint256"
                }
            ],
            "stateMutability": "view",
            "type": "function"
        },
        {
            "inputs": [],
            "name": "owner",
            "outputs": [
                {
                    "internalType": "address",
                    "name": "",
                    "type": "address"
                }
            ],
            "stateMutability": "view",
            "type": "function"
        },
        {
            "inputs": [
                {
                    "internalType": "address",
                    "name": "token",
                    "type": "address"
                },
                {
                    "internalType": "address",
                    "name": "dest",
                    "type": "address"
                },
                {
                    "internalType": "uint256",
                    "name": "amount",
                    "type": "uint256"
                }
            ],
            "name": "pullTokens",
            "outputs": [],
            "stateMutability": "nonpayable",
            "type": "function"
        },
        {
            "inputs": [
                {
                    "internalType": "uint16",
                    "name": "targetChain",
                    "type": "uint16"
                }
            ],
            "name": "quoteCrossChainDeposit",
            "outputs": [
                {
                    "internalType": "uint256",
                    "name": "cost",
                    "type": "uint256"
                }
            ],
            "stateMutability": "view",
            "type": "function"
        },
        {
            "inputs": [
                {
                    "internalType": "bytes",
                    "name": "payload",
                    "type": "bytes"
                },
                {
                    "internalType": "bytes[]",
                    "name": "additionalVaas",
                    "type": "bytes[]"
                },
                {
                    "internalType": "bytes32",
                    "name": "sourceAddress",
                    "type": "bytes32"
                },
                {
                    "internalType": "uint16",
                    "name": "sourceChain",
                    "type": "uint16"
                },
                {
                    "internalType": "bytes32",
                    "name": "deliveryHash",
                    "type": "bytes32"
                }
            ],
            "name": "receiveWormholeMessages",
            "outputs": [],
            "stateMutability": "payable",
            "type": "function"
        },
        {
            "inputs": [
                {
                    "internalType": "address",
                    "name": "prevOwner",
                    "type": "address"
                },
                {
                    "internalType": "address",
                    "name": "owner",
                    "type": "address"
                },
                {
                    "internalType": "uint256",
                    "name": "_threshold",
                    "type": "uint256"
                }
            ],
            "name": "removeOwner",
            "outputs": [],
            "stateMutability": "nonpayable",
            "type": "function"
        },
        {
            "inputs": [
                {
                    "internalType": "address",
                    "name": "newEntrypoint",
                    "type": "address"
                }
            ],
            "name": "replaceEntrypoint",
            "outputs": [],
            "stateMutability": "nonpayable",
            "type": "function"
        },
        {
            "inputs": [
                {
                    "internalType": "bytes32",
                    "name": "",
                    "type": "bytes32"
                }
            ],
            "name": "seenDeliveryVaaHashes",
            "outputs": [
                {
                    "internalType": "bool",
                    "name": "",
                    "type": "bool"
                }
            ],
            "stateMutability": "view",
            "type": "function"
        },
        {
            "inputs": [
                {
                    "internalType": "uint16",
                    "name": "targetChain",
                    "type": "uint16"
                },
                {
                    "internalType": "address",
                    "name": "targetHelloToken",
                    "type": "address"
                },
                {
                    "internalType": "address",
                    "name": "recipient",
                    "type": "address"
                },
                {
                    "internalType": "uint256",
                    "name": "amount",
                    "type": "uint256"
                },
                {
                    "internalType": "address",
                    "name": "token",
                    "type": "address"
                }
            ],
            "name": "sendCrossChainDeposit",
            "outputs": [],
            "stateMutability": "payable",
            "type": "function"
        },
        {
            "inputs": [
                {
                    "internalType": "address",
                    "name": "handler",
                    "type": "address"
                }
            ],
            "name": "setFallbackHandler",
            "outputs": [],
            "stateMutability": "nonpayable",
            "type": "function"
        },
        {
            "inputs": [
                {
                    "internalType": "address",
                    "name": "guard",
                    "type": "address"
                }
            ],
            "name": "setGuard",
            "outputs": [],
            "stateMutability": "nonpayable",
            "type": "function"
        },
        {
            "inputs": [
                {
                    "internalType": "uint16",
                    "name": "sourceChain",
                    "type": "uint16"
                },
                {
                    "internalType": "bytes32",
                    "name": "sourceAddress",
                    "type": "bytes32"
                }
            ],
            "name": "setRegisteredSender",
            "outputs": [],
            "stateMutability": "nonpayable",
            "type": "function"
        },
        {
            "inputs": [
                {
                    "internalType": "address[]",
                    "name": "_owners",
                    "type": "address[]"
                },
                {
                    "internalType": "uint256",
                    "name": "_threshold",
                    "type": "uint256"
                },
                {
                    "internalType": "address",
                    "name": "to",
                    "type": "address"
                },
                {
                    "internalType": "bytes",
                    "name": "data",
                    "type": "bytes"
                },
                {
                    "internalType": "address",
                    "name": "fallbackHandler",
                    "type": "address"
                },
                {
                    "internalType": "address",
                    "name": "paymentToken",
                    "type": "address"
                },
                {
                    "internalType": "uint256",
                    "name": "payment",
                    "type": "uint256"
                },
                {
                    "internalType": "address payable",
                    "name": "paymentReceiver",
                    "type": "address"
                }
            ],
            "name": "setup",
            "outputs": [],
            "stateMutability": "nonpayable",
            "type": "function"
        },
        {
            "inputs": [
                {
                    "internalType": "address",
                    "name": "_owner",
                    "type": "address"
                },
                {
                    "internalType": "uint256",
                    "name": "_threshold",
                    "type": "uint256"
                },
                {
                    "internalType": "address",
                    "name": "to",
                    "type": "address"
                },
                {
                    "internalType": "bytes",
                    "name": "data",
                    "type": "bytes"
                },
                {
                    "internalType": "address",
                    "name": "fallbackHandler",
                    "type": "address"
                },
                {
                    "internalType": "address",
                    "name": "paymentToken",
                    "type": "address"
                },
                {
                    "internalType": "uint256",
                    "name": "payment",
                    "type": "uint256"
                },
                {
                    "internalType": "address payable",
                    "name": "paymentReceiver",
                    "type": "address"
                },
                {
                    "internalType": "address",
                    "name": "_entryPoint",
                    "type": "address"
                }
            ],
            "name": "setupWithEntrypoint",
            "outputs": [],
            "stateMutability": "nonpayable",
            "type": "function"
        },
        {
            "inputs": [
                {
                    "internalType": "bytes32",
                    "name": "",
                    "type": "bytes32"
                }
            ],
            "name": "signedMessages",
            "outputs": [
                {
                    "internalType": "uint256",
                    "name": "",
                    "type": "uint256"
                }
            ],
            "stateMutability": "view",
            "type": "function"
        },
        {
            "inputs": [
                {
                    "internalType": "address",
                    "name": "targetContract",
                    "type": "address"
                },
                {
                    "internalType": "bytes",
                    "name": "calldataPayload",
                    "type": "bytes"
                }
            ],
            "name": "simulateAndRevert",
            "outputs": [],
            "stateMutability": "nonpayable",
            "type": "function"
        },
        {
            "inputs": [
                {
                    "internalType": "address",
                    "name": "prevOwner",
                    "type": "address"
                },
                {
                    "internalType": "address",
                    "name": "oldOwner",
                    "type": "address"
                },
                {
                    "internalType": "address",
                    "name": "newOwner",
                    "type": "address"
                }
            ],
            "name": "swapOwner",
            "outputs": [],
            "stateMutability": "nonpayable",
            "type": "function"
        },
        {
            "inputs": [],
            "name": "tokenBridge",
            "outputs": [
                {
                    "internalType": "contract ITokenBridge",
                    "name": "",
                    "type": "address"
                }
            ],
            "stateMutability": "view",
            "type": "function"
        },
        {
            "inputs": [
                {
                    "internalType": "address payable",
                    "name": "dest",
                    "type": "address"
                },
                {
                    "internalType": "uint256",
                    "name": "amount",
                    "type": "uint256"
                }
            ],
            "name": "transfer",
            "outputs": [],
            "stateMutability": "nonpayable",
            "type": "function"
        },
        {
            "inputs": [
                {
                    "internalType": "address",
                    "name": "_newOwner",
                    "type": "address"
                }
            ],
            "name": "updateOwner",
            "outputs": [],
            "stateMutability": "nonpayable",
            "type": "function"
        },
        {
            "inputs": [
                {
                    "components": [
                        {
                            "internalType": "address",
                            "name": "sender",
                            "type": "address"
                        },
                        {
                            "internalType": "uint256",
                            "name": "nonce",
                            "type": "uint256"
                        },
                        {
                            "internalType": "bytes",
                            "name": "initCode",
                            "type": "bytes"
                        },
                        {
                            "internalType": "bytes",
                            "name": "callData",
                            "type": "bytes"
                        },
                        {
                            "internalType": "uint256",
                            "name": "callGasLimit",
                            "type": "uint256"
                        },
                        {
                            "internalType": "uint256",
                            "name": "verificationGasLimit",
                            "type": "uint256"
                        },
                        {
                            "internalType": "uint256",
                            "name": "preVerificationGas",
                            "type": "uint256"
                        },
                        {
                            "internalType": "uint256",
                            "name": "maxFeePerGas",
                            "type": "uint256"
                        },
                        {
                            "internalType": "uint256",
                            "name": "maxPriorityFeePerGas",
                            "type": "uint256"
                        },
                        {
                            "internalType": "bytes",
                            "name": "paymasterAndData",
                            "type": "bytes"
                        },
                        {
                            "internalType": "bytes",
                            "name": "signature",
                            "type": "bytes"
                        }
                    ],
                    "internalType": "struct UserOperation",
                    "name": "userOp",
                    "type": "tuple"
                },
                {
                    "internalType": "bytes32",
                    "name": "userOpHash",
                    "type": "bytes32"
                },
                {
                    "internalType": "uint256",
                    "name": "missingAccountFunds",
                    "type": "uint256"
                }
            ],
            "name": "validateUserOp",
            "outputs": [
                {
                    "internalType": "uint256",
                    "name": "validationData",
                    "type": "uint256"
                }
            ],
            "stateMutability": "nonpayable",
            "type": "function"
        },
        {
            "inputs": [],
            "name": "wormhole",
            "outputs": [
                {
                    "internalType": "contract IWormhole",
                    "name": "",
                    "type": "address"
                }
            ],
            "stateMutability": "view",
            "type": "function"
        },
        {
            "inputs": [],
            "name": "wormholeRelayer",
            "outputs": [
                {
                    "internalType": "contract IWormholeRelayer",
                    "name": "",
                    "type": "address"
                }
            ],
            "stateMutability": "view",
            "type": "function"
        },
        {
            "stateMutability": "payable",
            "type": "receive"
        }
    ],
    "bytecode": "0x60e0346200011057601f620050d038819003918201601f19168301916001600160401b03831184841017620001155780849260609460405283398101031262000110576200004d816200012b565b906200006a604062000062602084016200012b565b92016200012b565b60016004556001600160a01b03928316608052821660a052600a80546001600160a01b031916331790551660c052604051614f8f90816200014182396080518181816108e401528181611f200152818161446d0152614c25015260a05181818161092d01528181610dc1015281816110010152818161152e015281816145ea0152614ddd015260c051818181610d5b01528181611be4015281816145810152614e5a0152f35b600080fd5b634e487b7160e01b600052604160045260246000fd5b51906001600160a01b0382168203620001105756fe60806040526004361015610030575b3615610028573461002357610021613b3f565b005b600080fd5b610021614107565b60003560e01c80630d582f13146103f057806312fb68e0146103e7578063180f6cc2146103de5780632694bd1d146103d55780632b524c97146103cc5780632d9ad53d146103c35780632f54bf6e146103ba5780633408e470146103b15780633a871cdd146103a8578063468721a71461039f5780635229073f14610396578063529dca321461038d5780635624b25b146103845780635ae6bd371461037b578063610b592514610372578063694e80c31461036957806369edce7d146103605780636a761202146103575780637d8329741461034e57806384acd1bb14610345578063880cdc311461033c5780638ab7495b146103335780638d3ea4891461032a5780638da5cb5b14610321578063934f3a1114610318578063a0e67e2b1461030f578063a9059cbb14610306578063ac85dca7146102fd578063affed0e0146102f4578063b0d691fe146102eb578063b4faba09146102e2578063b63e800d146102d9578063c6328a46146102d0578063cc2f8452146102c7578063d4d9bdcd146102be578063d8d11f78146102b5578063da25b725146102ac578063dd12d68b146102a3578063e009cfde1461029a578063e19a9dd914610291578063e318b52b14610288578063e75235b81461027f578063e86637db14610276578063f08a03231461026d578063f30d76a314610264578063f698da251461025b578063f8dc5dd9146102525763ffa1ad740361000e5761024d612531565b61000e565b5061024d61248d565b5061024d612469565b5061024d612421565b5061024d6123b3565b5061024d61238a565b5061024d61236b565b5061024d61222a565b5061024d612120565b5061024d611fec565b5061024d611f4f565b5061024d611f09565b5061024d611ed5565b5061024d611d9d565b5061024d611c3b565b5061024d611bcd565b5061024d611b43565b5061024d611ae3565b5061024d611ab9565b5061024d611a9a565b5061024d611a22565b5061024d61196b565b5061024d6118d8565b5061024d611845565b5061024d61181b565b5061024d611723565b5061024d61160f565b5061024d61155d565b5061024d611517565b5061024d6114cb565b5061024d61140f565b5061024d61137d565b5061024d6112e8565b5061024d6111f6565b5061024d6111c9565b5061024d61112d565b5061024d610cf3565b5061024d610c05565b5061024d610b8e565b5061024d610aac565b5061024d610a90565b5061024d610a27565b5061024d6109f5565b5061024d61087f565b5061024d610843565b5061024d6107b7565b5061024d61075e565b5061024d610427565b6001600160a01b0381160361002357565b6101043590610418826103f9565b565b60e43590610418826103f9565b503461002357604036600319011261002357600435610445816103f9565b7f9465fa0c962cc76958e6373a993326400c1c94f8be2fe3a952adfa7f60b2ea2661056e602435926104756141a0565b6104986001600160a01b0382168015159081610590575b81610585575b50613f26565b6104c96104c36104b76104aa846114b1565b546001600160a01b031690565b6001600160a01b031690565b15613f5a565b6001600052600260205261050d6104ff7fe90b7bceb6e7df5418fb78d8ee546e97c83a08bbccc01a0644d599ccd2a7c2e06104aa565b610508836114b1565b612615565b60016000526002602052610541817fe90b7bceb6e7df5418fb78d8ee546e97c83a08bbccc01a0644d599ccd2a7c2e0612615565b61055461054f600354612b18565b600355565b6040516001600160a01b0390911681529081906020820190565b0390a1806004540361057c57005b610021906140b3565b905030141538610492565b6001811415915061048c565b50634e487b7160e01b600052604160045260246000fd5b6001600160401b0381116105c657604052565b6105ce61059c565b604052565b608081019081106001600160401b038211176105c657604052565b604081019081106001600160401b038211176105c657604052565b61018081019081106001600160401b038211176105c657604052565b602081019081106001600160401b038211176105c657604052565b90601f801991011681019081106001600160401b038211176105c657604052565b6040519060a082018281106001600160401b038211176105c657604052565b60405190606082018281106001600160401b038211176105c657604052565b6040519061016082018281106001600160401b038211176105c657604052565b6040519061010082018281106001600160401b038211176105c657604052565b6020906001600160401b0381116106fc575b601f01601f19160190565b61070461059c565b6106f1565b929192610715826106df565b916107236040519384610640565b829481845281830111610023578281602093846000960137010152565b9080601f830112156100235781602061075b93359101610709565b90565b5034610023576080366003190112610023576001600160401b0360243581811161002357610790903690600401610740565b604435918211610023576107ab610021923690600401610740565b60643591600435613694565b5034610023576020366003190112610023576004356000526009602052602060ff604060002054166040519015158152f35b60643590600282101561002357565b608060031982011261002357600435610810816103f9565b9160243591604435906001600160401b0382116100235761083391600401610740565b9060643560028110156100235790565b503461002357610021610855366107f8565b9261086e60018060a09594951b03600c541633146127e4565b612c29565b61ffff81160361002357565b5034610023576020366003190112610023576109746004356108a081610873565b6040805163c23ee3c360e01b815261ffff92909216600480840191909152600060248401526203d0906044840152909161096591906001600160a01b0384826064817f000000000000000000000000000000000000000000000000000000000000000085165afa9182156109e8575b6000926109b5575b50602090855193848092631a90a21960e01b82527f0000000000000000000000000000000000000000000000000000000000000000165afa9182156109a8575b600092610978575b506125f1565b90519081529081906020820190565b0390f35b61099a91925060203d81116109a1575b6109928183610640565b81019061259b565b903861095f565b503d610988565b6109b061258e565b610957565b60209192506109d990863d88116109e1575b6109d18183610640565b810190612578565b509190610917565b503d6109c7565b6109f061258e565b61090f565b5034610023576020366003190112610023576020610a1d600435610a18816103f9565b613def565b6040519015158152f35b5034610023576020366003190112610023576020600435610a47816103f9565b6001600160a01b039081166001811415919082610a6b575b50506040519015158152f35b909150600052600282526040600020541615153880610a5f565b600091031261002357565b5034610023576000366003190112610023576020604051468152f35b503461002357600319606036820112610023576004356001600160401b0391828211610023576101609082360301126100235760443591610af860018060a01b03600c541633146127e4565b6024610b08813584600401612830565b9201351015610b49578161097492610b2c575b506040519081529081906020820190565b600080809260405190338319f150610b426127b4565b5038610b1b565b60405162461bcd60e51b815260206004820152601c60248201527f6163636f756e743a206e6f6e73657175656e7469616c206e6f6e6365000000006044820152606490fd5b5034610023576020610a1d610ba2366107f8565b92919091613d2a565b918091926000905b828210610bcb575011610bc4575050565b6000910152565b91508060209183015181860152018291610bb3565b90602091610bf981518092818552858086019101610bab565b601f01601f1916010190565b503461002357610c17610ba2366107f8565b6040519060203d8301016040523d82523d6000602084013e61097460405192839215158352604060208401526040830190610be0565b6020906001600160401b038111610c66575b60051b0190565b610c6e61059c565b610c5f565b9080601f8301121561002357813590610c8b82610c4d565b92610c996040519485610640565b828452602092838086019160051b8301019280841161002357848301915b848310610cc75750505050505090565b82356001600160401b038111610023578691610ce884848094890101610740565b815201920191610cb7565b5060a0366003190112610023576001600160401b0360043581811161002357610d20903690600401610740565b9060243590811161002357610d39903690600401610c73565b90606435610d4681610873565b610d5083516147c2565b926001600160a01b037f000000000000000000000000000000000000000000000000000000000000000081169260005b835181101561110b5780610e6c600060e0610dbc82610da2610f78978b612693565b516040518093819263a9e11893871b83526004830161111c565b03818b7f0000000000000000000000000000000000000000000000000000000000000000165afa9081156110fe575b83916110dd575b50610e50610e36608083015160208d610e10606087015161ffff1690565b90604051808096819463ad66a5f18c1b83526004830191909161ffff6020820193169052565b03915afa9182156110d0575b86926110af575b5014614a28565b01516040518093819263ea63738d60e01b83526004830161111c565b03818a5afa9081156110a2575b600091611081575b503060808201511480610fd9575b610e9890614b13565b610ec26000610ea78489612693565b516040518093819263c3f511c160e01b83526004830161111c565b0381838c5af18015610fcc575b610fa9575b506060810190610ee6825161ffff1690565b610ef66040830191825190614dbb565b916020610f0284614d5d565b910192835191600860ff821611610f7d575b50610f43610f2a610f53939451965161ffff1690565b945194610f35610661565b96875261ffff166020870152565b6001600160a01b03166040850152565b60608301526080820152610f67828a612693565b52610f728189612693565b50612b18565b610d80565b610f2a610fa1610f5394610f9b610f96610f43956134a3565b614c06565b90612f4d565b935050610f14565b610fc5903d806000833e610fbd8183610640565b810190614b6a565b5038610ed4565b610fd461258e565b610ecf565b50610e98610fec60a083015161ffff1690565b604051634d4502c960e11b81526020816004817f00000000000000000000000000000000000000000000000000000000000000008c165afa908115611074575b600091611045575b5061ffff8091169116149050610e8f565b611067915060203d60201161106d575b61105f8183610640565b8101906147ad565b38611034565b503d611055565b61107c61258e565b61102c565b61109c913d8091833e6110948183610640565b810190614a6d565b38610e81565b6110aa61258e565b610e79565b6110c991925060203d6020116109a1576109928183610640565b9038610e49565b6110d861258e565b610e42565b6110f8913d8091833e6110f08183610640565b810190614930565b38610df2565b61110661258e565b610deb565b610021608435836044358a8a614c12565b90602061075b928181520190610be0565b503461002357604036600319011261002357600435602435602081600019048111821515166111bc575b60059082821b93611167856106df565b946111756040519687610640565b808652611184601f19916106df565b01368387013760005b8481106111a25760405180610974888261111c565b806111b7918301548482871b89010152612b18565b61118d565b6111c46125aa565b611157565b50346100235760203660031901126100235760043560005260076020526020604060002054604051908152f35b5034610023576020366003190112610023577fecdf3a3effea5783a3c4c2140e677577666428d44ed9d474a0b3a4c9943f84406112d8600435611238816103f9565b6112406141a0565b6112756001600160a01b03828116801515806112dd575b61126090613cc2565b60005260016020526040600020541615613cf6565b600160008190526020526112b6611299600080516020614f1a8339815191526104aa565b6001600160a01b0383166000908152600160205260409020612615565b6001600081905260205261055481600080516020614f1a833981519152612615565b0390a1005b506001811415611257565b5034610023576020366003190112610023577f610f7ff2b304ae8903c3de74c60c6ab1f7d6226b3f52c5161905bb5ad4039c9360206004356113286141a0565b611336600354821115613ebe565b6113436001821015613ef2565b80600455604051908152a1005b9181601f84011215610023578235916001600160401b038311610023576020838186019501011161002357565b5034610023576101203660031901126100235760043561139c816103f9565b6044356113a8816103f9565b606435916001600160401b038311610023576113cb610021933690600401611350565b6084929192356113da816103f9565b60a435916113e7836103f9565b60e435946113f4866103f9565b6101043596611402886103f9565b60c43595602435906126d6565b5061014036600319011261002357600435611429816103f9565b6001600160401b0360443581811161002357611449903690600401611350565b906114526107e9565b9160e43590611460826103f9565b61146861040a565b9261012435958611610023576109749661148961149f973690600401610740565b9560c4359360a435936084359360243590613030565b60405190151581529081906020820190565b6001600160a01b0316600090815260026020526040902090565b5034610023576040366003190112610023576004356114e9816103f9565b60018060a01b0316600052600860205260406000206024356000526020526020604060002054604051908152f35b5034610023576000366003190112610023576040517f00000000000000000000000000000000000000000000000000000000000000006001600160a01b03168152602090f35b50346100235760203660031901126100235760043561157b816103f9565b600d546001600160a01b0316331480156115d5575b1561159e5761002190612c58565b60405162461bcd60e51b815260206004820152600f60248201526e135a5e195908105d5d1a0811985a5b608a1b6044820152606490fd5b5030331415611590565b9181601f84011215610023578235916001600160401b038311610023576020808501948460051b01011161002357565b5034610023576080366003190112610023576001600160401b03600435818111610023576116419036906004016115df565b906024358381116100235761165a9036906004016115df565b9360443590811161002357611673903690600401610c73565b9061167c6107e9565b9161169260018060a01b03600c541633146127e4565b805185036116e85760005b8581106116a657005b806116de856116c16116bc6116e3958b8b612b28565b612b40565b6116cc848c89612b28565b356116d78588612693565b5191612c29565b612b18565b61169d565b60405162461bcd60e51b815260206004820152601360248201527277726f6e67206172726179206c656e6774687360681b6044820152606490fd5b5060a03660031901126100235761002160043561173f81610873565b60243561174b816103f9565b6117cd6044359161175b836103f9565b606435936117db6084359461176f866103f9565b6040516323b872dd60e01b81523360048201523060248201526044810188905260208160648160006001600160a01b038c165af1801561180e575b6117e0575b50604080516001600160a01b03909216602083015290948591820190565b03601f198101855284610640565b61440f565b6118009060203d8111611807575b6117f88183610640565b8101906125fd565b50386117af565b503d6117ee565b61181661258e565b6117aa565b503461002357600036600319011261002357600d546040516001600160a01b039091168152602090f35b5034610023576060366003190112610023576001600160401b0360243581811161002357611877903690600401610740565b60443591821161002357611892610021923690600401610740565b9060043561342e565b90815180825260208080930193019160005b8281106118bb575050505090565b83516001600160a01b0316855293810193928101926001016118ad565b503461002357600080600319360112611968576118f6600354612634565b9080600191828252600260209281845260018060a01b039160409386848685205416905b611931575b855187815280610974818a018c61189b565b84168781146119635790818892611948838c612693565b52845282875261195d85878620541691612b18565b9161191a565b61191f565b80fd5b503461002357604036600319011261002357600435611989816103f9565b60243560018060a01b036119a281600d54163314612ce1565b82169182156119e457819060008080809581945af1156119c25750604051f35b6064926040519263190eecf360e31b8452600484015260248301526044820152fd5b6040516309293b1960e41b8152600490fd5b606090600319011261002357600435611a0e816103f9565b90602435611a1b816103f9565b9060443590565b503461002357611a31366119f6565b600d549192916001600160a01b0390611a4d9082163314612ce1565b8316156119e457611a5f818484614135565b15611a6657005b60405163190eecf360e31b81526001600160a01b0392831660048201529290911660248301526044820152606490fd5b0390fd5b5034610023576000366003190112610023576020600554604051908152f35b503461002357600036600319011261002357600c546040516001600160a01b039091168152602090f35b503461002357604036600319011261002357600435611b01816103f9565b6024356001600160401b03811161002357600091611b2483923690600401610740565b90602082519201905af46000523d6020523d600060403e60403d016000fd5b503461002357610100366003190112610023576001600160401b0360043581811161002357611b769036906004016115df565b604435611b82816103f9565b60643593841161002357611b9d610021943690600401611350565b60843591611baa836103f9565b60a43593611bb7856103f9565b611bbf61041a565b9660c4359660243591612d91565b5034610023576000366003190112610023576040517f00000000000000000000000000000000000000000000000000000000000000006001600160a01b03168152602090f35b90611c2b60209194939460408452604084019061189b565b6001600160a01b03909416910152565b503461002357604036600319011261002357600435611c59816103f9565b600190600090826001600160a01b0360243581841683148015611d89575b611c8090613e22565b611c8b811515613e56565b611cb46104aa611c9a83612634565b969560018060a01b03166000526001602052604060002090565b955b611cff575b50841603611cd5575b815261097460405192839283611c13565b9150611cf9611cec611ce684612fc0565b83612693565b516001600160a01b031690565b91611cc4565b818695949516838115159182611d7e575b505080611d75575b15611d6d57611d67611d616104aa88611d47899a611d388a9b8a9b612693565b6001600160a01b039091169052565b6001600160a01b0316600090815260016020526040902090565b96612b18565b93611cb6565b939293611cbb565b50808510611d18565b141590508338611d10565b50611c80611d9685613def565b9050611c77565b50346100235760203660031901126100235733600090815260026020526040902054600435906001600160a01b031615611e2f57336000908152600860205260408120909190611e0390611dfd9083905b90600052602052604060002090565b60019055565b6040519033907ff2a0eb156472d1440255b0d7c1e19cc07115d1051fe605b0dce69acfec884d9c8484a3f35b60405162461bcd60e51b8152602060048201526005602482015264047533033360dc1b6044820152606490fd5b61014060031982011261002357600435611e75816103f9565b9160243591604435906001600160401b03821161002357611e9891600401611350565b9091606435600281101561002357906084359060a4359060c4359060e435611ebf816103f9565b9061010435611ecd816103f9565b906101243590565b5034610023576020611efb611ee936611e5c565b999890989791979692969593956139ce565b818151910120604051908152f35b5034610023576000366003190112610023576040517f00000000000000000000000000000000000000000000000000000000000000006001600160a01b03168152602090f35b503461002357604036600319011261002357600435611f6d81610873565b600a546001600160a01b03163303611f9b5761ffff16600052600b6020526024356040600020556000604051f35b60405162461bcd60e51b8152602060048201526024808201527f4e6f7420616c6c6f77656420746f207365742072656769737465726564207365604482015263373232b960e11b6064820152608490fd5b50346100235760403660031901126100235760043561200a816103f9565b60243590612017826103f9565b61201f6141a0565b6001600160a01b038281169081151580612115575b61203d90613cc2565b808316600052600160205260406000205416036120e857816120bb6112d89261050861209f6104aa7faab4fa2b463f581b2b32cb3b7e3b704b9ce37cc209b5fb4d77e593ace40542769760018060a01b03166000526001602052604060002090565b6001600160a01b03909216600090815260016020526040902090565b6001600160a01b0381166000908152600160205260409020610554905b80546001600160a01b0319169055565b60405162461bcd60e51b8152602060048201526005602482015264475331303360d81b6044820152606490fd5b506001821415612034565b5034610023576020366003190112610023577f1151116914515bc0891ff9047a6cb32cf902546f83066499bcf8ba33d2353fa26112d8600435612162816103f9565b61216a6141a0565b6001600160a01b038116806121b9575b507f4a204f620c8c5ccdca3fd54d003badd85ba500436a431f0cbda4f558c93c34c88190556040516001600160a01b0390911681529081906020820190565b6040516301ffc9a760e01b815263736bd41d60e11b60048201526121f991602090829060249082905afa90811561221d575b6000916121ff575b50613b7f565b3861217a565b612217915060203d8111611807576117f88183610640565b386121f3565b61222561258e565b6121eb565b5034610023576060366003190112610023577f9465fa0c962cc76958e6373a993326400c1c94f8be2fe3a952adfa7f60b2ea266112d86105087ff8d49fc529812e9a7c5c50e69c20f0dccc0db8fa95c98bc58cc9a4f1c1299eaf612343600435612293816103f9565b612337602435916122a3836103f9565b6044359586916122b2836103f9565b6122ba6141a0565b61231a6001600160a01b036122df858216801515908161059057816105855750613f26565b6122f16104c36104b76104aa886114b1565b861680151580612360575b61230590613f26565b6123146104b76104aa856114b1565b14614072565b6123326123296104aa876114b1565b610508856114b1565b6114b1565b6105546120d8826114b1565b0390a16040516001600160a01b0390911681529081906020820190565b5060018114156122fc565b5034610023576000366003190112610023576020600454604051908152f35b50346100235761097461239f611ee936611e5c565b604051918291602083526020830190610be0565b5034610023576020366003190112610023577f5ac6c46c93c8d0e53714ba3b53db3e7c046da994313d7ed0d192028bc7c228b060206004356123f4816103f9565b6123fc6141a0565b600080516020614f3a8339815191528190556040516001600160a01b039091168152a1005b50346100235760203660031901126100235760043561243f816103f9565b6124476141a0565b600c80546001600160a01b0319166001600160a01b0392909216919091179055005b5034610023576000366003190112610023576020612485613966565b604051908152f35b5034610023576125177ff8d49fc529812e9a7c5c50e69c20f0dccc0db8fa95c98bc58cc9a4f1c1299eaf61056e6124c3366119f6565b9490916124ce6141a0565b6124e4866124dd600354612fc0565b1015613ebe565b6125026001600160a01b038416801515806123605761230590613f26565b6105086125116104aa856114b1565b916114b1565b6125236120d8826114b1565b61055461054f6003546140a6565b503461002357600036600319011261002357610974604051612552816105ee565b60058152640312e342e360dc1b6020820152604051918291602083526020830190610be0565b9190826040910312610023576020825192015190565b506040513d6000823e3d90fd5b90816020910312610023575190565b50634e487b7160e01b600052601160045260246000fd5b6109c4906109c41981116125d3570190565b6125db6125aa565b0190565b6101f4906101f41981116125d3570190565b811981116125d3570190565b90816020910312610023575180151581036100235790565b80546001600160a01b0319166001600160a01b03909216919091179055565b9061263e82610c4d565b61264b6040519182610640565b828152809261265c601f1991610c4d565b0190602036910137565b50634e487b7160e01b600052603260045260246000fd5b60209080511561268b570190565b6125db612666565b60209181518110156126a8575b60051b010190565b6126b0612666565b6126a0565b908060209392818452848401376000828201840152601f01601f1916010190565b90979496939298959198600160a01b6001900396879485809481600160a01b6001900319941684600c541617600c55168092600d541617600d556040519161271d836105ee565b60018352602036818501376127318361267d565b52836040519c8d9c8d9463b63e800d60e01b6020870152602486016101009052610124860161275f9161189b565b94604401521660648c01526023198b83030160848c015261277f926126b5565b961660a48801521660c486015260e48501521661010483015203601f19810182526127aa9082610640565b6104189030612b7f565b3d156127df573d906127c5826106df565b916127d36040519384610640565b82523d6000602084013e565b606090565b156127eb57565b60405162461bcd60e51b815260206004820152601c60248201527f6163636f756e743a206e6f742066726f6d20456e747279506f696e74000000006044820152606490fd5b9060405161285481612846602082019485612ae9565b03601f198101835282610640565b519020600d546001600160a01b0316916101408101359036819003601e19018212156100235701908135916001600160401b03831161002357602001908236038213610023576128ac6104b7926128b2943691610709565b906128c1565b036128bc57600090565b600190565b61075b916128ce91612a1a565b9190916128ff565b50634e487b7160e01b600052602160045260246000fd5b600511156128f757565b6104186128d6565b612908816128ed565b806129105750565b612919816128ed565b600181036129615760405162461bcd60e51b815260206004820152601860248201527745434453413a20696e76616c6964207369676e617475726560401b6044820152606490fd5b61296a816128ed565b600281036129b75760405162461bcd60e51b815260206004820152601f60248201527f45434453413a20696e76616c6964207369676e6174757265206c656e677468006044820152606490fd5b806129c36003926128ed565b146129ca57565b60405162461bcd60e51b815260206004820152602260248201527f45434453413a20696e76616c6964207369676e6174757265202773272076616c604482015261756560f01b6064820152608490fd5b906041815114600014612a4857612a44916020820151906060604084015193015160001a90612a52565b9091565b5050600090600290565b939291906fa2a8918ca85bafe22016d0b997e4df60600160ff1b038311612adc5791612a9f9160209360405196879094939260ff6060936080840197845216602083015260408201520152565b836000948592838052039060015afa15612acf575b81516001600160a01b03811615612ac9579190565b50600190565b612ad761258e565b612ab4565b5050509050600090600390565b603c917f19457468657265756d205369676e6564204d6573736167653a0a3332000000008252601c8201520190565b60019060001981146125d3570190565b9190811015612b385760051b0190565b610c6e612666565b3561075b816103f9565b90929192612b57816106df565b91612b656040519384610640565b829482845282820111610023576020610418930190610bab565b8151600092839283929160200190600019f4903d916040519260208185010160405280845282602085013e15612bb3575050565b604482511061196857600482015182019160208160248501940312612c25576024810151906001600160401b038211612c215701908260438301121561196857611a96612c098484604460248201519101612b4a565b60405162461bcd60e51b81529182916004830161111c565b8280fd5b5080fd5b90612c35939291613aae565b3d6040519160208284010160405281835260009182602085013e15612bb3575050565b6001600160a01b0381811691908215612ccf57308314612cbd57600d541690818314612cab57600d55307fb9312e2100469bd44e3f762c248f4dcc8d7788906fabf34f79db45920c37e2696000604051a4565b604051638a95d3fb60e01b8152600490fd5b6040516375b4d24760e01b8152600490fd5b604051639b15e16f60e01b8152600490fd5b15612ce857565b60405162461bcd60e51b815260206004820152601360248201527221b0b63632b91024b9902737ba1027bbb732b960691b6044820152606490fd5b93929594918060808601608087525260a08501919060005b818110612d665750505060208401959095526001600160a01b03918216604084015216606090910152565b9091926001908435612d77816103f9565b828060a01b03168152602080910194019101919091612d3b565b989294979390969197612da388610c4d565b612db06040519182610640565b88815260208082018a60051b8d0190368211610023578d905b828210612e765750505050612e27612e449795938b9a99979593612e117f141df868a6331af528e38c83b7aa03edc19be66e37ae67f9285bf4f8e3c6a1a89d612e2d95613f8e565b6001600160a01b038916612e5b575b3691610709565b85613be7565b82612e49575b505050604051948594339886612d23565b0390a2565b612e529261330a565b50388080612e33565b612e7189600080516020614f3a83398151915255565b612e20565b8380918335612e84816103f9565b815201910190612dc9565b906002821015612e9c5752565b612ea46128d6565b52565b9a9893928b97929a96919598939d9c9d600160a01b600190039b8c998a8099168152602001528c6101606040819201528d0190612ee3926126b5565b9760608c01612ef191612e8f565b60808b015260a08a015260c08901521660e087015216610100850152838103610120850152612f1f91610be0565b9316906101400152565b806000190460401181151516612f40575b60061b90565b612f486125aa565b612f3a565b8060001904821181151516612f60570290565b612f686125aa565b0290565b8115612f76570490565b634e487b7160e01b600052601260045260246000fd5b15612f9357565b60405162461bcd60e51b8152602060048201526005602482015264047533031360dc1b6044820152606490fd5b60018110612fd0575b6000190190565b612fd86125aa565b612fc9565b6109c48110612fef575b6109c3190190565b612ff76125aa565b612fe7565b1561300357565b60405162461bcd60e51b8152602060048201526005602482015264475330313360d81b6044820152606490fd5b838a899583859f9e9d9995968b978f9d9e8b9f839e8a839e600554988997600160a01b60019003809c16976130649a6139ce565b9061306e90612b18565b600555805160208201209c613083918e61342e565b7f4a204f620c8c5ccdca3fd54d003badd85ba500436a431f0cbda4f558c93c34c85416998a1515998a613252575b509061311a91613122936130f35a6130ec6130e76130d86130d18b612f29565b603f900490565b6130e18b6125c1565b906142bf565b6125df565b1115612f8c565b5a9f61311489159c8d60001461324b5761310c5a612fdd565b953691610709565b91613b01565b9b5a90614267565b908b908c15613241575b508015613239575b61313d90612ffc565b60009515613225575b5050505050856000146131ee576040805185815260208101929092527f442e715f626346e8c54381002da614f62bee8d27386535b2521ec8540898556e91a15b61318e575050565b803b1561002357604051631264e26d60e31b8152600481019290925283151560248301526000908290604490829084905af180156131e1575b6131ce5750565b806131db610418926105b3565b80610a85565b6131e961258e565b6131c7565b6040805185815260208101929092527f23428b18acfb3ea64b08dc0c1d296ea9c09702c09083ca5272e64d115b687d2391a1613186565b61322f95506133c0565b3880808080613146565b508515613134565b905015153861312c565b8895612e20565b91908b3b1561002357838f6000848f8e838f958f8f9c8f9c8f996131229f9361311a9f9461329c958f9d6040519e8f9d8e9c8d9b8c9a633af85da960e11b8c526004339c01612ea7565b03925af180156132c9575b6132b6575b50935090916130b1565b806131db6132c3926105b3565b386132ac565b6132d161258e565b6132a7565b156132dd57565b60405162461bcd60e51b8152602060048201526005602482015264475330313160d81b6044820152606490fd5b9092916001600160a01b0391908281166133ba575032935b80831661336e5750600080806104189461334982953a600110841461336757600190614245565b9788918391831561335d575b1690f16132d6565b6108fc9250613355565b3a90614245565b61337c613386939592614216565b9485921690614135565b1561338d57565b60405162461bcd60e51b815260206004820152600560248201526423a998189960d91b6044820152606490fd5b93613322565b9294936001600160a01b039390848116613428575032955b80851661340f575060006104189461334982956133f7849685966142aa565b903a811085146134075790614245565b503a90614245565b919261342361338695979461337c936142aa565b614245565b956133d8565b916004549182156134425761041893613694565b60405162461bcd60e51b8152602060048201526005602482015264475330303160d81b6044820152606490fd5b1561347657565b60405162461bcd60e51b8152602060048201526005602482015264047533032360dc1b6044820152606490fd5b60ff16600881106134b6575b6007190190565b6134be6125aa565b6134af565b60ff16600481106134d6575b6003190190565b6134de6125aa565b6134cf565b156134ea57565b60405162461bcd60e51b8152602060048201526005602482015264475330323560d81b6044820152606490fd5b1561351e57565b60405162461bcd60e51b8152602060048201526005602482015264475330323760d81b6044820152606490fd5b1561355257565b60405162461bcd60e51b8152602060048201526005602482015264475330323160d81b6044820152606490fd5b1561358657565b60405162461bcd60e51b815260206004820152600560248201526423a998191960d91b6044820152606490fd5b156135ba57565b60405162461bcd60e51b8152602060048201526005602482015264475330323360d81b6044820152606490fd5b9081602091031261002357516001600160e01b0319811681036100235790565b909161361e61075b93604084526040840190610be0565b916020818403910152610be0565b1561363357565b60405162461bcd60e51b815260206004820152600560248201526411d4cc0c8d60da1b6044820152606490fd5b1561366757565b60405162461bcd60e51b815260206004820152600560248201526423a998191b60d91b6044820152606490fd5b909291926136ad84516136a6856141d6565b111561346f565b600091825b8484106136c157505050505050565b846137e1918484896136e98982906041020160208101519060ff604160408301519201511692565b9092909160ff81168061384657505084926137b6949261377361378f9361373c6137346137db9b9a51956137256020998a98898d012014613517565b6001600160a01b03169c6141d6565b84101561354b565b61375161374884614285565b8251101561357f565b61376a848483010193613765855191614285565b6142aa565b905110156135b3565b604051809381926320c13b0b60e01b9788845260048401613607565b03818a5afa918215613839575b60009261380c575b50506001600160e01b0319161461362c565b6001600160a01b0390811683821690811191826137f3575b50816137e7575b50613660565b93612b18565b926136b2565b600191501415386137d5565b9091506138026104aa856114b1565b16151590386137ce565b61382b9250803d10613832575b6138238183610640565b8101906135e7565b38806137a4565b503d613819565b61384161258e565b61379c565b9450959650509092506001918281146000146138b4575050506001600160a01b0316916137db91503383148015613886575b613881906134e3565b6137b6565b506138816138aa86611dee8660018060a01b03166000526008602052604060002090565b5415159050613878565b601e1015613935576000929361390f6040928351966138ea8b6020996138e1816128468d82019485612ae9565b519020946134c3565b9451948594859094939260ff6060936080840197845216602083015260408201520152565b84805203915afa15613928575b6137db600051916137b6565b61393061258e565b61391c565b9160209361390f6000946040519384938b859094939260ff6060936080840197845216602083015260408201520152565b60405160208101907f47e79534a245952e8b16893a336b85a3d9ea9fa8c573f3d803afb92a79469218825246604082015230606082015260608152608081018181106001600160401b038211176139c1575b60405251902090565b6139c961059c565b6139b8565b94909895917fbb8310d486368db6bd6f849402fdd73ad53d316b5a4b2644ad6efe0f941286d89a9894613a09613a3e9260409a963691610709565b6020815191012089519b60208d019d8e528c60018060a01b039b8c809b1691015260608d015260808c015260a08b0190612e8f565b60c089015260e0880152610100870152166101208501521661014083015261016090818301528152613a6f81610609565b51902061075b613a7d613966565b604051601960f81b6020820152600160f81b6021820152602281019190915260428101929092528160628101612846565b6000939160018594936002811015613ae3575b148414613ad65750602082519201908319f490565b602083519301918419f190565b613aeb6128d6565b613ac1565b90600092839260208351930191f490565b60009491600186956002811015613b32575b148514613b26575060208351930191f490565b9060208451940192f190565b613b3a6128d6565b613b13565b50600080516020614f3a833981519152548015610021576000808092368280373360601b3652818060143601925af13d82803e15613b7b573d90f35b3d90fd5b15613b8657565b60405162461bcd60e51b8152602060048201526005602482015264047533330360dc1b6044820152606490fd5b15613bba57565b60405162461bcd60e51b8152602060048201526005602482015264047533030360dc1b6044820152606490fd5b60016000819052602052600080516020614f1a833981519152549091906001600160a01b03908116613c955760016000819052602052613c43600080516020614f1a8339815191525b80546001600160a01b0319166001179055565b8216613c4d575050565b813b15613c685761041891613c63915a91613af0565b613bb3565b60405162461bcd60e51b815260206004820152600560248201526423a998181960d91b6044820152606490fd5b60405162461bcd60e51b8152602060048201526005602482015264047533130360dc1b6044820152606490fd5b15613cc957565b60405162461bcd60e51b8152602060048201526005602482015264475331303160d81b6044820152606490fd5b15613cfd57565b60405162461bcd60e51b815260206004820152600560248201526423a998981960d91b6044820152606490fd5b929190600133141580613dce575b15613da157613d4693613aae565b908115613d7757337f6895c13664aa4f67288b25d7a21d7aaa34916e355fb9b6fae0a139a9085becb86000604051a2565b337facd2c8702804128fdb0db2bb49f6d127dd0181c13fd45dbfe16de0930e2bd3756000604051a2565b60405162461bcd60e51b815260206004820152600560248201526411d4cc4c0d60da1b6044820152606490fd5b50336000908152600160205260409020546001600160a01b03161515613d38565b6001600160a01b039081166001811415919082613e0b57505090565b909150600052600160205260406000205416151590565b15613e2957565b60405162461bcd60e51b8152602060048201526005602482015264475331303560d81b6044820152606490fd5b15613e5d57565b60405162461bcd60e51b815260206004820152600560248201526423a998981b60d91b6044820152606490fd5b15613e9157565b60405162461bcd60e51b8152602060048201526005602482015264047533230360dc1b6044820152606490fd5b15613ec557565b60405162461bcd60e51b8152602060048201526005602482015264475332303160d81b6044820152606490fd5b15613ef957565b60405162461bcd60e51b815260206004820152600560248201526423a999181960d91b6044820152606490fd5b15613f2d57565b60405162461bcd60e51b8152602060048201526005602482015264475332303360d81b6044820152606490fd5b15613f6157565b60405162461bcd60e51b815260206004820152600560248201526411d4cc8c0d60da1b6044820152606490fd5b613f9a60045415613e8a565b613fa78151831115613ebe565b6001613fb581841015613ef2565b600081805b613fe0575b50506104189291613fd5613c30613fdb936114b1565b51600355565b600455565b9091835183101561406c576140436105086137db8493614003611cec888a612693565b9283916140316001600160a01b038085168015159182614061575b82614056575b82614049575b5050613f26565b6123326104c36104b76104aa866114b1565b91613fba565b841614159050388061402a565b308214159250614024565b818b1415925061401e565b91613fbf565b1561407957565b60405162461bcd60e51b8152602060048201526005602482015264475332303560d81b6044820152606490fd5b8015612fd0576000190190565b60207f610f7ff2b304ae8903c3de74c60c6ab1f7d6226b3f52c5161905bb5ad4039c93916140df6141a0565b6140ed600354821115613ebe565b6140fa6001821015613ef2565b80600455604051908152a1565b6040513481527f3d0ce9bfc3ed7d6862dbb28b2dea94561fe714a1b4d019aa8af39730d1ad7c3d60203392a2565b60405163a9059cbb60e01b60208281019182526001600160a01b0390941660248301526044820194909452919260009283906141748160648101612846565b519261270f195a01f13d801561419c576020146141915750600090565b600051159015171590565b5090565b3033036141a957565b60405162461bcd60e51b8152602060048201526005602482015264475330333160d81b6044820152606490fd5b8015614210578060001904604111600116614203575b60416141fb8183029283612f6c565b036100235790565b61420b6125aa565b6141ec565b50600090565b8015614210578060001904600111600116614238575b60016141fb8280612f6c565b6142406125aa565b61422c565b908115614260576141fb6142598284612f4d565b9283612f6c565b5050600090565b80821161002357818110614279570390565b6142816125aa565b0390565b602019811161429d575b602081019081106100235790565b6142a56125aa565b61428f565b906142b590826125f1565b9081106100235790565b908082106142cb575090565b905090565b60405190606082018281106001600160401b03821117614300575b60405260006040838281528260208201520152565b61430861059c565b6142eb565b6040519061431a826105ee565b600182528160005b60209081811015614344576020916143386142d0565b90828501015201614322565b505050565b51906001600160401b038216820361002357565b908160209103126100235761075b90614349565b919061ffff809116835260209160018060a01b0316828401526143a060409460c08686015260c0850190610be0565b926060906000828201526203d090608082015260a08186039101528280875195868152019601946000925b8584106143dc575050505050505090565b865180518216895280860151898701528201516001600160401b03168883015296820196958401956001909301926143cb565b9061442781836020969761442161430d565b98614542565b6144308661267d565b5261443a8561267d565b506040805163c23ee3c360e01b815261ffff84166004820152600060248201526203d09060448201526001600160a01b037f00000000000000000000000000000000000000000000000000000000000000001693909182606481875afa918215614535575b600092614514575b506144c86040519788968795869463329a2be760e01b865260048601614371565b03925af1908115614507575b6000916144df575090565b61075b915060203d8111614500575b6144f88183610640565b81019061435d565b503d6144ee565b61450f61258e565b6144d4565b61452d91925060403d81116109e1576109d18183610640565b5090386144a7565b61453d61258e565b61449f565b926004929161454f6142d0565b50604091825161455e81610625565b6000815261456a6142d0565b50835163095ea7b360e01b81526001600160a01b037f0000000000000000000000000000000000000000000000000000000000000000811688830181815260208082018890529a91968b968795919492909190869082908190604001038160008789165af18015614759575b61473c575b508851631a90a21960e01b81527f0000000000000000000000000000000000000000000000000000000000000000831696909386858e818b5afa94851561472f575b60009561470a575b5090614649918b519c8d97889687966362d2f5ed60e11b8852169260048701614766565b0391875af19485156146fd575b6000956146de575b508351634d4502c960e11b815295869182905afa9384156146d1575b6000946146b0575b5061075b939461469d614693610680565b61ffff9097168752565b8501528301906001600160401b03169052565b61075b94506146cb90863d881161106d5761105f8183610640565b93614682565b6146d961258e565b61467a565b6146f6919550823d8411614500576144f88183610640565b933861465e565b61470561258e565b614656565b6146499291955061472790883d8a116109a1576109928183610640565b949091614625565b61473761258e565b61461d565b61475290863d8811611807576117f88183610640565b50386145db565b61476161258e565b6145d6565b9160c09361ffff9161075b97969360018060a01b0316855260208501521660408301526060820152600060808201528160a08201520190610be0565b519061041882610873565b90816020910312610023575161075b81610873565b906147cc82610c4d565b6040906147db82519182610640565b83815280936147ec601f1991610c4d565b019160005b8381106147fe5750505050565b602090825160a081018181106001600160401b03821117614846575b8452600081528260008183015260008583015260006060830152600060808301528286010152016147f1565b61484e61059c565b61481a565b519060ff8216820361002357565b519063ffffffff8216820361002357565b9080601f8301121561002357815161075b92602001612b4a565b81601f82011215610023578051906148a382610c4d565b926040926148b384519586610640565b808552602091828087019260071b85010193818511610023578301915b8483106148e05750505050505090565b608083830312610023578360809187516148f9816105d3565b855181528286015183820152614910898701614853565b898201526060614921818801614853565b908201528152019201916148d0565b906020828203126100235781516001600160401b0392838211610023570190610160828203126100235761496261069f565b9261496c83614853565b845261497a60208401614861565b602085015261498b60408401614861565b604085015261499c606084016147a2565b6060850152608083015160808501526149b760a08401614349565b60a08501526149c860c08401614853565b60c085015260e083015181811161002357826149e5918501614872565b60e08501526101006149f8818501614861565b90850152610120918284015191821161002357614a1691840161488c565b90830152610140809101519082015290565b15614a2f57565b60405162461bcd60e51b81526020600482015260166024820152754e6f74206120546f6b656e204272696467652056414160501b6044820152606490fd5b906020828203126100235781516001600160401b03928382116100235701906101008282031261002357614a9f6106bf565b92614aa983614853565b84526020830151602085015260408301516040850152614acb606084016147a2565b606085015260808301516080850152614ae660a084016147a2565b60a085015260c083015160c085015260e083015190811161002357614b0b9201614872565b60e082015290565b15614b1a57565b60405162461bcd60e51b815260206004820152602260248201527f546f6b656e20776173206e6f742073656e7420746f2074686973206164647265604482015261737360f01b6064820152608490fd5b906020828203126100235781516001600160401b0381116100235761075b9201614872565b8015612ac957600190602081108216604e8210831617614bfe578190600a925b808211614bc757505081600019048111612f60570290565b909280600019048111614bf1575b818416614be8575b800292811c90614baf565b80920291614bdd565b614bf96125aa565b614bd5565b9050600a0a90565b60ff61075b9116614b8f565b6001600160a01b039594909391929091907f000000000000000000000000000000000000000000000000000000000000000087163303614d0d5760409694875195614c6560a09283895283890190610be0565b90602090888303828a01528180895194858152019801936000915b848310614cca5750505050509685015261ffff16606084015260808301529192507f4c60c8ab43f8efcbf0457d4512565aafdd6727f21552f5c58bb90cc658333bf19181900390a1565b855180518b528085015161ffff168b860152808e015182168e8c0152606080820151908c0152608090810151908b01529881019894830194600190920191614c80565b60405162461bcd60e51b815260206004820152602260248201527f4d73672e73656e646572206973206e6f7420576f726d686f6c652052656c617960448201526132b960f11b6064820152608490fd5b60008091604051602081019063313ce56760e01b825260048152614d80816105ee565b51915afa50614d8d6127b4565b60208180518101031261002357602061075b9101614853565b90816020910312610023575161075b816103f9565b604051634d4502c960e11b815291906020906001600160a01b039082856004817f000000000000000000000000000000000000000000000000000000000000000086165afa948515614ee0575b600095614ec1575b5060009461ffff828116911603614e2e5750505061075b9150614eed565b604051630ff8f14360e11b815261ffff91909116600482015260248101939093528190839060449082907f0000000000000000000000000000000000000000000000000000000000000000165afa928315614eb4575b92614e8e57505090565b61075b9250803d10614ead575b614ea58183610640565b810190614da6565b503d614e9b565b614ebc61258e565b614e84565b614ed9919550833d851161106d5761105f8183610640565b9338614e10565b614ee861258e565b614e08565b8060a01c614f01576001600160a01b031690565b6024906040519063033b960d60e41b82526004820152fdfecc69885fda6bcc1a4ace058b4a62bf5e179ea78fd58a1ccd71c22cc9b688792f6c9a6c4a39284e37ed1cf53d337577d14212a4870fb976a4366c693b939918d5a264697066735822122077fa7ac3703c3f3c2168162f3448c8d91f0599b6068869b265cd997c022e8dec64736f6c634300080f0033",
    "linkReferences": {},
    "deployedLinkReferences": {}
}